{
  "_format": "hh-sol-artifact-1",
  "contractName": "YourContract",
  "sourceName": "contracts/YourContract.sol",
  "abi": [
    {
      "inputs": [],
      "stateMutability": "nonpayable",
      "type": "constructor"
    },
    {
      "anonymous": false,
      "inputs": [
        {
          "indexed": true,
          "internalType": "address",
          "name": "owner",
          "type": "address"
        },
        {
          "indexed": true,
          "internalType": "address",
          "name": "approved",
          "type": "address"
        },
        {
          "indexed": true,
          "internalType": "uint256",
          "name": "tokenId",
          "type": "uint256"
        }
      ],
      "name": "Approval",
      "type": "event"
    },
    {
      "anonymous": false,
      "inputs": [
        {
          "indexed": true,
          "internalType": "address",
          "name": "owner",
          "type": "address"
        },
        {
          "indexed": true,
          "internalType": "address",
          "name": "operator",
          "type": "address"
        },
        {
          "indexed": false,
          "internalType": "bool",
          "name": "approved",
          "type": "bool"
        }
      ],
      "name": "ApprovalForAll",
      "type": "event"
    },
    {
      "anonymous": false,
      "inputs": [
        {
          "indexed": false,
          "internalType": "address",
          "name": "account",
          "type": "address"
        }
      ],
      "name": "Paused",
      "type": "event"
    },
    {
      "anonymous": false,
      "inputs": [
        {
          "indexed": true,
          "internalType": "bytes32",
          "name": "role",
          "type": "bytes32"
        },
        {
          "indexed": true,
          "internalType": "bytes32",
          "name": "previousAdminRole",
          "type": "bytes32"
        },
        {
          "indexed": true,
          "internalType": "bytes32",
          "name": "newAdminRole",
          "type": "bytes32"
        }
      ],
      "name": "RoleAdminChanged",
      "type": "event"
    },
    {
      "anonymous": false,
      "inputs": [
        {
          "indexed": true,
          "internalType": "bytes32",
          "name": "role",
          "type": "bytes32"
        },
        {
          "indexed": true,
          "internalType": "address",
          "name": "account",
          "type": "address"
        },
        {
          "indexed": true,
          "internalType": "address",
          "name": "sender",
          "type": "address"
        }
      ],
      "name": "RoleGranted",
      "type": "event"
    },
    {
      "anonymous": false,
      "inputs": [
        {
          "indexed": true,
          "internalType": "bytes32",
          "name": "role",
          "type": "bytes32"
        },
        {
          "indexed": true,
          "internalType": "address",
          "name": "account",
          "type": "address"
        },
        {
          "indexed": true,
          "internalType": "address",
          "name": "sender",
          "type": "address"
        }
      ],
      "name": "RoleRevoked",
      "type": "event"
    },
    {
      "anonymous": false,
      "inputs": [
        {
          "indexed": true,
          "internalType": "address",
          "name": "from",
          "type": "address"
        },
        {
          "indexed": true,
          "internalType": "address",
          "name": "to",
          "type": "address"
        },
        {
          "indexed": true,
          "internalType": "uint256",
          "name": "tokenId",
          "type": "uint256"
        }
      ],
      "name": "Transfer",
      "type": "event"
    },
    {
      "anonymous": false,
      "inputs": [
        {
          "indexed": false,
          "internalType": "address",
          "name": "account",
          "type": "address"
        }
      ],
      "name": "Unpaused",
      "type": "event"
    },
    {
      "anonymous": false,
      "inputs": [
        {
          "indexed": false,
          "internalType": "address",
          "name": "artist",
          "type": "address"
        },
        {
          "indexed": false,
          "internalType": "bytes32",
          "name": "_merkleRoot",
          "type": "bytes32"
        }
      ],
      "name": "Vetted",
      "type": "event"
    },
    {
      "inputs": [],
      "name": "CRON_JOB",
      "outputs": [
        {
          "internalType": "bytes32",
          "name": "",
          "type": "bytes32"
        }
      ],
      "stateMutability": "view",
      "type": "function"
    },
    {
      "inputs": [],
      "name": "DEFAULT_ADMIN_ROLE",
      "outputs": [
        {
          "internalType": "bytes32",
          "name": "",
          "type": "bytes32"
        }
      ],
      "stateMutability": "view",
      "type": "function"
    },
    {
      "inputs": [],
      "name": "MINTER_ROLE",
      "outputs": [
        {
          "internalType": "bytes32",
          "name": "",
          "type": "bytes32"
        }
      ],
      "stateMutability": "view",
      "type": "function"
    },
    {
      "inputs": [],
      "name": "PAUSER_ROLE",
      "outputs": [
        {
          "internalType": "bytes32",
          "name": "",
          "type": "bytes32"
        }
      ],
      "stateMutability": "view",
      "type": "function"
    },
    {
      "inputs": [],
      "name": "UKRAINEDAO",
      "outputs": [
        {
          "internalType": "address",
          "name": "",
          "type": "address"
        }
      ],
      "stateMutability": "view",
      "type": "function"
    },
    {
      "inputs": [],
      "name": "UNCHAIN",
      "outputs": [
        {
          "internalType": "address",
          "name": "",
          "type": "address"
        }
      ],
      "stateMutability": "view",
      "type": "function"
    },
    {
      "inputs": [],
      "name": "_merkleRoot",
      "outputs": [
        {
          "internalType": "bytes32",
          "name": "",
          "type": "bytes32"
        }
      ],
      "stateMutability": "view",
      "type": "function"
    },
    {
      "inputs": [
        {
          "internalType": "address",
          "name": "_artist",
          "type": "address"
        },
        {
          "internalType": "bytes32[]",
          "name": "_merkleProof",
          "type": "bytes32[]"
        }
      ],
      "name": "_verifyArtist",
      "outputs": [
        {
          "internalType": "bool",
          "name": "valid",
          "type": "bool"
        }
      ],
      "stateMutability": "view",
      "type": "function"
    },
    {
      "inputs": [
        {
          "internalType": "address",
          "name": "newCron",
          "type": "address"
        }
      ],
      "name": "addCron",
      "outputs": [],
      "stateMutability": "nonpayable",
      "type": "function"
    },
    {
      "inputs": [
        {
          "internalType": "address",
          "name": "to",
          "type": "address"
        },
        {
          "internalType": "uint256",
          "name": "tokenId",
          "type": "uint256"
        }
      ],
      "name": "approve",
      "outputs": [],
      "stateMutability": "nonpayable",
      "type": "function"
    },
    {
      "inputs": [
        {
          "internalType": "address",
          "name": "owner",
          "type": "address"
        }
      ],
      "name": "balanceOf",
      "outputs": [
        {
          "internalType": "uint256",
          "name": "",
          "type": "uint256"
        }
      ],
      "stateMutability": "view",
      "type": "function"
    },
    {
      "inputs": [
        {
          "internalType": "bytes32",
          "name": "newRoot",
          "type": "bytes32"
        }
      ],
      "name": "cronJobRoot",
      "outputs": [],
      "stateMutability": "nonpayable",
      "type": "function"
    },
    {
      "inputs": [
        {
          "internalType": "uint256",
          "name": "tokenId",
          "type": "uint256"
        }
      ],
      "name": "getApproved",
      "outputs": [
        {
          "internalType": "address",
          "name": "",
          "type": "address"
        }
      ],
      "stateMutability": "view",
      "type": "function"
    },
    {
      "inputs": [
        {
          "internalType": "bytes32",
          "name": "role",
          "type": "bytes32"
        }
      ],
      "name": "getRoleAdmin",
      "outputs": [
        {
          "internalType": "bytes32",
          "name": "",
          "type": "bytes32"
        }
      ],
      "stateMutability": "view",
      "type": "function"
    },
    {
      "inputs": [
        {
          "internalType": "bytes32",
          "name": "role",
          "type": "bytes32"
        },
        {
          "internalType": "address",
          "name": "account",
          "type": "address"
        }
      ],
      "name": "grantRole",
      "outputs": [],
      "stateMutability": "nonpayable",
      "type": "function"
    },
    {
      "inputs": [
        {
          "internalType": "bytes32",
          "name": "role",
          "type": "bytes32"
        },
        {
          "internalType": "address",
          "name": "account",
          "type": "address"
        }
      ],
      "name": "hasRole",
      "outputs": [
        {
          "internalType": "bool",
          "name": "",
          "type": "bool"
        }
      ],
      "stateMutability": "view",
      "type": "function"
    },
    {
      "inputs": [
        {
          "internalType": "address",
          "name": "owner",
          "type": "address"
        },
        {
          "internalType": "address",
          "name": "operator",
          "type": "address"
        }
      ],
      "name": "isApprovedForAll",
      "outputs": [
        {
          "internalType": "bool",
          "name": "",
          "type": "bool"
        }
      ],
      "stateMutability": "view",
      "type": "function"
    },
    {
      "inputs": [],
      "name": "name",
      "outputs": [
        {
          "internalType": "string",
          "name": "",
          "type": "string"
        }
      ],
      "stateMutability": "view",
      "type": "function"
    },
    {
      "inputs": [
        {
          "internalType": "uint256",
          "name": "tokenId",
          "type": "uint256"
        }
      ],
      "name": "ownerOf",
      "outputs": [
        {
          "internalType": "address",
          "name": "",
          "type": "address"
        }
      ],
      "stateMutability": "view",
      "type": "function"
    },
    {
      "inputs": [],
      "name": "pause",
      "outputs": [],
      "stateMutability": "nonpayable",
      "type": "function"
    },
    {
      "inputs": [],
      "name": "paused",
      "outputs": [
        {
          "internalType": "bool",
          "name": "",
          "type": "bool"
        }
      ],
      "stateMutability": "view",
      "type": "function"
    },
    {
      "inputs": [
        {
          "internalType": "address",
          "name": "redeemer",
          "type": "address"
        },
        {
          "components": [
            {
              "internalType": "uint256",
              "name": "tokenId",
              "type": "uint256"
            },
            {
              "internalType": "uint256",
              "name": "minPrice",
              "type": "uint256"
            },
            {
              "internalType": "string",
              "name": "uri",
              "type": "string"
            }
          ],
          "internalType": "struct YourContract.NFTVoucher",
          "name": "voucher",
          "type": "tuple"
        },
        {
          "internalType": "bytes",
          "name": "signature",
          "type": "bytes"
        }
      ],
      "name": "redeem",
      "outputs": [
        {
          "internalType": "uint256",
          "name": "",
          "type": "uint256"
        }
      ],
      "stateMutability": "payable",
      "type": "function"
    },
    {
      "inputs": [
        {
          "internalType": "bytes32",
          "name": "role",
          "type": "bytes32"
        },
        {
          "internalType": "address",
          "name": "account",
          "type": "address"
        }
      ],
      "name": "renounceRole",
      "outputs": [],
      "stateMutability": "nonpayable",
      "type": "function"
    },
    {
      "inputs": [
        {
          "internalType": "bytes32",
          "name": "role",
          "type": "bytes32"
        },
        {
          "internalType": "address",
          "name": "account",
          "type": "address"
        }
      ],
      "name": "revokeRole",
      "outputs": [],
      "stateMutability": "nonpayable",
      "type": "function"
    },
    {
      "inputs": [
        {
          "internalType": "address",
          "name": "to",
          "type": "address"
        },
        {
          "internalType": "uint256",
          "name": "tokenId",
          "type": "uint256"
        },
        {
          "internalType": "string",
          "name": "uri",
          "type": "string"
        }
      ],
      "name": "safeMint",
      "outputs": [],
      "stateMutability": "nonpayable",
      "type": "function"
    },
    {
      "inputs": [
        {
          "internalType": "address",
          "name": "from",
          "type": "address"
        },
        {
          "internalType": "address",
          "name": "to",
          "type": "address"
        },
        {
          "internalType": "uint256",
          "name": "tokenId",
          "type": "uint256"
        }
      ],
      "name": "safeTransferFrom",
      "outputs": [],
      "stateMutability": "nonpayable",
      "type": "function"
    },
    {
      "inputs": [
        {
          "internalType": "address",
          "name": "from",
          "type": "address"
        },
        {
          "internalType": "address",
          "name": "to",
          "type": "address"
        },
        {
          "internalType": "uint256",
          "name": "tokenId",
          "type": "uint256"
        },
        {
          "internalType": "bytes",
          "name": "_data",
          "type": "bytes"
        }
      ],
      "name": "safeTransferFrom",
      "outputs": [],
      "stateMutability": "nonpayable",
      "type": "function"
    },
    {
      "inputs": [
        {
          "internalType": "address",
          "name": "operator",
          "type": "address"
        },
        {
          "internalType": "bool",
          "name": "approved",
          "type": "bool"
        }
      ],
      "name": "setApprovalForAll",
      "outputs": [],
      "stateMutability": "nonpayable",
      "type": "function"
    },
    {
      "inputs": [
        {
          "internalType": "bytes4",
          "name": "interfaceId",
          "type": "bytes4"
        }
      ],
      "name": "supportsInterface",
      "outputs": [
        {
          "internalType": "bool",
          "name": "",
          "type": "bool"
        }
      ],
      "stateMutability": "view",
      "type": "function"
    },
    {
      "inputs": [],
      "name": "symbol",
      "outputs": [
        {
          "internalType": "string",
          "name": "",
          "type": "string"
        }
      ],
      "stateMutability": "view",
      "type": "function"
    },
    {
      "inputs": [
        {
          "internalType": "uint256",
          "name": "tokenId",
          "type": "uint256"
        }
      ],
      "name": "tokenURI",
      "outputs": [
        {
          "internalType": "string",
          "name": "",
          "type": "string"
        }
      ],
      "stateMutability": "view",
      "type": "function"
    },
    {
      "inputs": [
        {
          "internalType": "address",
          "name": "from",
          "type": "address"
        },
        {
          "internalType": "address",
          "name": "to",
          "type": "address"
        },
        {
          "internalType": "uint256",
          "name": "tokenId",
          "type": "uint256"
        }
      ],
      "name": "transferFrom",
      "outputs": [],
      "stateMutability": "nonpayable",
      "type": "function"
    },
    {
      "inputs": [],
      "name": "unpause",
      "outputs": [],
      "stateMutability": "nonpayable",
      "type": "function"
    },
    {
      "inputs": [
        {
          "internalType": "address",
          "name": "artist",
          "type": "address"
        },
        {
          "internalType": "bytes32[]",
          "name": "_merkleProof",
          "type": "bytes32[]"
        }
      ],
      "name": "vetArtist",
      "outputs": [],
      "stateMutability": "nonpayable",
      "type": "function"
    },
    {
      "inputs": [],
      "name": "withdrawAll",
      "outputs": [],
      "stateMutability": "nonpayable",
      "type": "function"
    }
  ],
  "bytecode": "0x6101406040523480156200001257600080fd5b506040518060400160405280600f81526020017f506f69676e617264566f756368657200000000000000000000000000000000008152506040518060400160405280600181526020017f31000000000000000000000000000000000000000000000000000000000000008152506040518060400160405280600881526020017f506f69676e6172640000000000000000000000000000000000000000000000008152506040518060400160405280601081526020017f5b5d2b2b2b2b7c7c3d3d3d3d3d3d3d3e0000000000000000000000000000000081525081600090805190602001906200010392919062000441565b5080600190805190602001906200011c92919062000441565b50505060008280519060200120905060008280519060200120905060007f8b73c3c69bb8fe3d512ecc4cf759cc79239f7b179b0ffacaa9a75d522b39400f90508260e081815250508161010081815250504660a0818152505062000188818484620002a060201b60201c565b608081815250503073ffffffffffffffffffffffffffffffffffffffff1660c08173ffffffffffffffffffffffffffffffffffffffff1660601b8152505080610120818152505050505050506000600760006101000a81548160ff021916908315150217905550620002046000801b33620002dc60201b60201c565b620002367f65d7a28e3265b37a6474929f336521b332c1681b933f6cb9f3376673440d862a33620002dc60201b60201c565b620002687f9f2df0fed2c77648de5860a4cc508cd0818c85b8b8a1ab4ceeef8d981c8956a633620002dc60201b60201c565b6200029a7fd3df243147c4fb3974ce0d528ec5f88e1db059a372802ca1b53961d19409f07c33620002dc60201b60201c565b6200062e565b60008383834630604051602001620002bd95949392919062000524565b6040516020818303038152906040528051906020012090509392505050565b620002ee8282620003ce60201b60201c565b620003ca5760016008600084815260200190815260200160002060000160008373ffffffffffffffffffffffffffffffffffffffff1673ffffffffffffffffffffffffffffffffffffffff16815260200190815260200160002060006101000a81548160ff0219169083151502179055506200036f6200043960201b60201c565b73ffffffffffffffffffffffffffffffffffffffff168173ffffffffffffffffffffffffffffffffffffffff16837f2f8788117e7eff1d82e926ec794901d17c78024a50270940304540a733656f0d60405160405180910390a45b5050565b60006008600084815260200190815260200160002060000160008373ffffffffffffffffffffffffffffffffffffffff1673ffffffffffffffffffffffffffffffffffffffff16815260200190815260200160002060009054906101000a900460ff16905092915050565b600033905090565b8280546200044f90620005c9565b90600052602060002090601f016020900481019282620004735760008555620004bf565b82601f106200048e57805160ff1916838001178555620004bf565b82800160010185558215620004bf579182015b82811115620004be578251825591602001919060010190620004a1565b5b509050620004ce9190620004d2565b5090565b5b80821115620004ed576000816000905550600101620004d3565b5090565b620004fc8162000581565b82525050565b6200050d8162000595565b82525050565b6200051e81620005bf565b82525050565b600060a0820190506200053b600083018862000502565b6200054a602083018762000502565b62000559604083018662000502565b62000568606083018562000513565b620005776080830184620004f1565b9695505050505050565b60006200058e826200059f565b9050919050565b6000819050919050565b600073ffffffffffffffffffffffffffffffffffffffff82169050919050565b6000819050919050565b60006002820490506001821680620005e257607f821691505b60208210811415620005f957620005f8620005ff565b5b50919050565b7f4e487b7100000000000000000000000000000000000000000000000000000000600052602260045260246000fd5b60805160a05160c05160601c60e05161010051610120516156e662000681600039600061344a0152600061348c0152600061346b015260006133a0015260006133f60152600061341f01526156e66000f3fe6080604052600436106102045760003560e01c806368189a9511610118578063b7c08fb7116100a0578063d53913931161006f578063d539139314610756578063d547741f14610781578063e0ebc01f146107aa578063e63ab1e9146107d5578063e985e9c51461080057610204565b8063b7c08fb71461069e578063b88d4fde146106c7578063c87b56dd146106f0578063cd279c7c1461072d57610204565b8063853828b6116100e7578063853828b6146105cb57806391d14854146105e257806395d89b411461061f578063a217fddf1461064a578063a22cb4651461067557610204565b806368189a9514610523578063708522fa1461054c57806370a08231146105775780638456cb59146105b457610204565b80632f2ff15d1161019b57806342842e0e1161016a57806342842e0e1461043e57806345dc5bd514610467578063516fd821146104905780635c975abb146104bb5780636352211e146104e657610204565b80632f2ff15d146103aa5780632fc37ab2146103d357806336568abe146103fe5780633f4ba83a1461042757610204565b80631792dea2116101d75780631792dea2146102d75780631c098e901461031457806323b872dd14610344578063248a9ca31461036d57610204565b806301ffc9a71461020957806306fdde0314610246578063081812fc14610271578063095ea7b3146102ae575b600080fd5b34801561021557600080fd5b50610230600480360381019061022b9190613c77565b61083d565b60405161023d9190614435565b60405180910390f35b34801561025257600080fd5b5061025b61084f565b6040516102689190614548565b60405180910390f35b34801561027d57600080fd5b5061029860048036038101906102939190613cc9565b6108e1565b6040516102a591906143a5565b60405180910390f35b3480156102ba57600080fd5b506102d560048036038101906102d09190613b6f565b610966565b005b3480156102e357600080fd5b506102fe60048036038101906102f99190613a60565b610a7e565b60405161030b9190614435565b60405180910390f35b61032e60048036038101906103299190613af0565b610ac0565b60405161033b919061490a565b60405180910390f35b34801561035057600080fd5b5061036b60048036038101906103669190613996565b610cc2565b005b34801561037957600080fd5b50610394600480360381019061038f9190613c12565b610d22565b6040516103a19190614450565b60405180910390f35b3480156103b657600080fd5b506103d160048036038101906103cc9190613c3b565b610d42565b005b3480156103df57600080fd5b506103e8610d6b565b6040516103f59190614450565b60405180910390f35b34801561040a57600080fd5b5061042560048036038101906104209190613c3b565b610d71565b005b34801561043357600080fd5b5061043c610df4565b005b34801561044a57600080fd5b5061046560048036038101906104609190613996565b610e31565b005b34801561047357600080fd5b5061048e60048036038101906104899190613a60565b610e51565b005b34801561049c57600080fd5b506104a5610fc0565b6040516104b291906143a5565b60405180910390f35b3480156104c757600080fd5b506104d0610fd8565b6040516104dd9190614435565b60405180910390f35b3480156104f257600080fd5b5061050d60048036038101906105089190613cc9565b610fef565b60405161051a91906143a5565b60405180910390f35b34801561052f57600080fd5b5061054a60048036038101906105459190613931565b6110a1565b005b34801561055857600080fd5b506105616110e4565b60405161056e91906143a5565b60405180910390f35b34801561058357600080fd5b5061059e60048036038101906105999190613931565b6110fc565b6040516105ab919061490a565b60405180910390f35b3480156105c057600080fd5b506105c96111b4565b005b3480156105d757600080fd5b506105e06111f1565b005b3480156105ee57600080fd5b5061060960048036038101906106049190613c3b565b61132b565b6040516106169190614435565b60405180910390f35b34801561062b57600080fd5b50610634611396565b6040516106419190614548565b60405180910390f35b34801561065657600080fd5b5061065f611428565b60405161066c9190614450565b60405180910390f35b34801561068157600080fd5b5061069c60048036038101906106979190613ab4565b61142f565b005b3480156106aa57600080fd5b506106c560048036038101906106c09190613c12565b611445565b005b3480156106d357600080fd5b506106ee60048036038101906106e991906139e5565b611482565b005b3480156106fc57600080fd5b5061071760048036038101906107129190613cc9565b6114e4565b6040516107249190614548565b60405180910390f35b34801561073957600080fd5b50610754600480360381019061074f9190613bab565b6114f6565b005b34801561076257600080fd5b5061076b611542565b6040516107789190614450565b60405180910390f35b34801561078d57600080fd5b506107a860048036038101906107a39190613c3b565b611566565b005b3480156107b657600080fd5b506107bf61158f565b6040516107cc9190614450565b60405180910390f35b3480156107e157600080fd5b506107ea6115b3565b6040516107f79190614450565b60405180910390f35b34801561080c57600080fd5b506108276004803603810190610822919061395a565b6115d7565b6040516108349190614435565b60405180910390f35b60006108488261166b565b9050919050565b60606000805461085e90614c89565b80601f016020809104026020016040519081016040528092919081815260200182805461088a90614c89565b80156108d75780601f106108ac576101008083540402835291602001916108d7565b820191906000526020600020905b8154815290600101906020018083116108ba57829003601f168201915b5050505050905090565b60006108ec826116e5565b61092b576040517f08c379a00000000000000000000000000000000000000000000000000000000081526004016109229061480a565b60405180910390fd5b6004600083815260200190815260200160002060009054906101000a900473ffffffffffffffffffffffffffffffffffffffff169050919050565b600061097182610fef565b90508073ffffffffffffffffffffffffffffffffffffffff168373ffffffffffffffffffffffffffffffffffffffff1614156109e2576040517f08c379a00000000000000000000000000000000000000000000000000000000081526004016109d99061488a565b60405180910390fd5b8073ffffffffffffffffffffffffffffffffffffffff16610a01611751565b73ffffffffffffffffffffffffffffffffffffffff161480610a305750610a2f81610a2a611751565b6115d7565b5b610a6f576040517f08c379a0000000000000000000000000000000000000000000000000000000008152600401610a669061470a565b60405180910390fd5b610a798383611759565b505050565b60008083604051602001610a9291906142b6565b604051602081830303815290604052805190602001209050610ab78360095483611812565b91505092915050565b60003373ffffffffffffffffffffffffffffffffffffffff163273ffffffffffffffffffffffffffffffffffffffff1614610b30576040517f08c379a0000000000000000000000000000000000000000000000000000000008152600401610b279061482a565b60405180910390fd5b610b38610fd8565b15610b78576040517f08c379a0000000000000000000000000000000000000000000000000000000008152600401610b6f906146ea565b60405180910390fd5b6000610b848484611829565b9050610bb07f9f2df0fed2c77648de5860a4cc508cd0818c85b8b8a1ab4ceeef8d981c8956a68261132b565b610bef576040517f08c379a0000000000000000000000000000000000000000000000000000000008152600401610be6906148aa565b60405180910390fd5b8360200135341015610c36576040517f08c379a0000000000000000000000000000000000000000000000000000000008152600401610c2d906147aa565b60405180910390fd5b610c4481856000013561185b565b610ca48460000135858060400190610c5c9190614925565b8080601f016020809104026020016040519081016040528093929190818152602001838380828437600081840152601f19601f82011690508083019250505050505050611a35565b610cb381868660000135611aa9565b83600001359150509392505050565b610cd3610ccd611751565b82611d10565b610d12576040517f08c379a0000000000000000000000000000000000000000000000000000000008152600401610d09906148ca565b60405180910390fd5b610d1d838383611aa9565b505050565b600060086000838152602001908152602001600020600101549050919050565b610d4b82610d22565b610d5c81610d57611751565b611dee565b610d668383611e8b565b505050565b60095481565b610d79611751565b73ffffffffffffffffffffffffffffffffffffffff168173ffffffffffffffffffffffffffffffffffffffff1614610de6576040517f08c379a0000000000000000000000000000000000000000000000000000000008152600401610ddd906148ea565b60405180910390fd5b610df08282611f6c565b5050565b7f65d7a28e3265b37a6474929f336521b332c1681b933f6cb9f3376673440d862a610e2681610e21611751565b611dee565b610e2e61204e565b50565b610e4c83838360405180602001604052806000815250611482565b505050565b610e59610fd8565b15610e99576040517f08c379a0000000000000000000000000000000000000000000000000000000008152600401610e90906146ea565b60405180910390fd5b8173ffffffffffffffffffffffffffffffffffffffff16610eb8611751565b73ffffffffffffffffffffffffffffffffffffffff1614610f0e576040517f08c379a0000000000000000000000000000000000000000000000000000000008152600401610f05906145aa565b60405180910390fd5b610f188282610a7e565b610f57576040517f08c379a0000000000000000000000000000000000000000000000000000000008152600401610f4e9061486a565b60405180910390fd5b610f817f9f2df0fed2c77648de5860a4cc508cd0818c85b8b8a1ab4ceeef8d981c8956a683611e8b565b7f851b6a53edb783f3ba6f30cde1ae104a39eef07dbf58730b54de80092a1a104a82600954604051610fb492919061440c565b60405180910390a15050565b7310e1439455bd2624878b243819e31cfee9eb721c81565b6000600760009054906101000a900460ff16905090565b6000806002600084815260200190815260200160002060009054906101000a900473ffffffffffffffffffffffffffffffffffffffff169050600073ffffffffffffffffffffffffffffffffffffffff168173ffffffffffffffffffffffffffffffffffffffff161415611098576040517f08c379a000000000000000000000000000000000000000000000000000000000815260040161108f9061474a565b60405180910390fd5b80915050919050565b6000801b6110b6816110b1611751565b611dee565b6110e07fd3df243147c4fb3974ce0d528ec5f88e1db059a372802ca1b53961d19409f07c83610d42565b5050565b73633b7218644b83d57d90e7299039ebab19698e9c81565b60008073ffffffffffffffffffffffffffffffffffffffff168273ffffffffffffffffffffffffffffffffffffffff16141561116d576040517f08c379a00000000000000000000000000000000000000000000000000000000081526004016111649061472a565b60405180910390fd5b600360008373ffffffffffffffffffffffffffffffffffffffff1673ffffffffffffffffffffffffffffffffffffffff168152602001908152602001600020549050919050565b7f65d7a28e3265b37a6474929f336521b332c1681b933f6cb9f3376673440d862a6111e6816111e1611751565b611dee565b6111ee6120f0565b50565b7fd3df243147c4fb3974ce0d528ec5f88e1db059a372802ca1b53961d19409f07c6112238161121e611751565b611dee565b60003a476112319190614b5e565b905060006002826112429190614ad3565b90507310e1439455bd2624878b243819e31cfee9eb721c73ffffffffffffffffffffffffffffffffffffffff166108fc829081150290604051600060405180830381858888f1935050505061129657600080fd5b73633b7218644b83d57d90e7299039ebab19698e9c73ffffffffffffffffffffffffffffffffffffffff166108fc829081150290604051600060405180830381858888f193505050506112e857600080fd5b3373ffffffffffffffffffffffffffffffffffffffff166108fc3a9081150290604051600060405180830381858888f1935050505061132657600080fd5b505050565b60006008600084815260200190815260200160002060000160008373ffffffffffffffffffffffffffffffffffffffff1673ffffffffffffffffffffffffffffffffffffffff16815260200190815260200160002060009054906101000a900460ff16905092915050565b6060600180546113a590614c89565b80601f01602080910402602001604051908101604052809291908181526020018280546113d190614c89565b801561141e5780601f106113f35761010080835404028352916020019161141e565b820191906000526020600020905b81548152906001019060200180831161140157829003601f168201915b5050505050905090565b6000801b81565b61144161143a611751565b8383612193565b5050565b7fd3df243147c4fb3974ce0d528ec5f88e1db059a372802ca1b53961d19409f07c61147781611472611751565b611dee565b816009819055505050565b61149361148d611751565b83611d10565b6114d2576040517f08c379a00000000000000000000000000000000000000000000000000000000081526004016114c9906148ca565b60405180910390fd5b6114de84848484612300565b50505050565b60606114ef8261235c565b9050919050565b7f9f2df0fed2c77648de5860a4cc508cd0818c85b8b8a1ab4ceeef8d981c8956a661152881611523611751565b611dee565b61153284846124ae565b61153c8383611a35565b50505050565b7f9f2df0fed2c77648de5860a4cc508cd0818c85b8b8a1ab4ceeef8d981c8956a681565b61156f82610d22565b6115808161157b611751565b611dee565b61158a8383611f6c565b505050565b7fd3df243147c4fb3974ce0d528ec5f88e1db059a372802ca1b53961d19409f07c81565b7f65d7a28e3265b37a6474929f336521b332c1681b933f6cb9f3376673440d862a81565b6000600560008473ffffffffffffffffffffffffffffffffffffffff1673ffffffffffffffffffffffffffffffffffffffff16815260200190815260200160002060008373ffffffffffffffffffffffffffffffffffffffff1673ffffffffffffffffffffffffffffffffffffffff16815260200190815260200160002060009054906101000a900460ff16905092915050565b60007f7965db0b000000000000000000000000000000000000000000000000000000007bffffffffffffffffffffffffffffffffffffffffffffffffffffffff1916827bffffffffffffffffffffffffffffffffffffffffffffffffffffffff191614806116de57506116dd826124cc565b5b9050919050565b60008073ffffffffffffffffffffffffffffffffffffffff166002600084815260200190815260200160002060009054906101000a900473ffffffffffffffffffffffffffffffffffffffff1673ffffffffffffffffffffffffffffffffffffffff1614159050919050565b600033905090565b816004600083815260200190815260200160002060006101000a81548173ffffffffffffffffffffffffffffffffffffffff021916908373ffffffffffffffffffffffffffffffffffffffff160217905550808273ffffffffffffffffffffffffffffffffffffffff166117cc83610fef565b73ffffffffffffffffffffffffffffffffffffffff167f8c5be1e5ebec7d5bd14f71427d1e84f3dd0314c0f7b2291e5b200ac8c7c3b92560405160405180910390a45050565b60008261181f85846125ae565b1490509392505050565b60008061183584612649565b905061185283611844836126d4565b61270490919063ffffffff16565b91505092915050565b600073ffffffffffffffffffffffffffffffffffffffff168273ffffffffffffffffffffffffffffffffffffffff1614156118cb576040517f08c379a00000000000000000000000000000000000000000000000000000000081526004016118c2906147ca565b60405180910390fd5b6118d4816116e5565b15611914576040517f08c379a000000000000000000000000000000000000000000000000000000000815260040161190b9061464a565b60405180910390fd5b6119206000838361272b565b6001600360008473ffffffffffffffffffffffffffffffffffffffff1673ffffffffffffffffffffffffffffffffffffffff16815260200190815260200160002060008282546119709190614a7d565b92505081905550816002600083815260200190815260200160002060006101000a81548173ffffffffffffffffffffffffffffffffffffffff021916908373ffffffffffffffffffffffffffffffffffffffff160217905550808273ffffffffffffffffffffffffffffffffffffffff16600073ffffffffffffffffffffffffffffffffffffffff167fddf252ad1be2c89b69c2b068fc378daa952ba7f163c4a11628f55a4df523b3ef60405160405180910390a4611a3160008383612783565b5050565b611a3e826116e5565b611a7d576040517f08c379a0000000000000000000000000000000000000000000000000000000008152600401611a749061476a565b60405180910390fd5b80600660008481526020019081526020016000209080519060200190611aa492919061368f565b505050565b8273ffffffffffffffffffffffffffffffffffffffff16611ac982610fef565b73ffffffffffffffffffffffffffffffffffffffff1614611b1f576040517f08c379a0000000000000000000000000000000000000000000000000000000008152600401611b169061462a565b60405180910390fd5b600073ffffffffffffffffffffffffffffffffffffffff168273ffffffffffffffffffffffffffffffffffffffff161415611b8f576040517f08c379a0000000000000000000000000000000000000000000000000000000008152600401611b869061466a565b60405180910390fd5b611b9a83838361272b565b611ba5600082611759565b6001600360008573ffffffffffffffffffffffffffffffffffffffff1673ffffffffffffffffffffffffffffffffffffffff1681526020019081526020016000206000828254611bf59190614b5e565b925050819055506001600360008473ffffffffffffffffffffffffffffffffffffffff1673ffffffffffffffffffffffffffffffffffffffff1681526020019081526020016000206000828254611c4c9190614a7d565b92505081905550816002600083815260200190815260200160002060006101000a81548173ffffffffffffffffffffffffffffffffffffffff021916908373ffffffffffffffffffffffffffffffffffffffff160217905550808273ffffffffffffffffffffffffffffffffffffffff168473ffffffffffffffffffffffffffffffffffffffff167fddf252ad1be2c89b69c2b068fc378daa952ba7f163c4a11628f55a4df523b3ef60405160405180910390a4611d0b838383612783565b505050565b6000611d1b826116e5565b611d5a576040517f08c379a0000000000000000000000000000000000000000000000000000000008152600401611d51906146ca565b60405180910390fd5b6000611d6583610fef565b90508073ffffffffffffffffffffffffffffffffffffffff168473ffffffffffffffffffffffffffffffffffffffff161480611dd457508373ffffffffffffffffffffffffffffffffffffffff16611dbc846108e1565b73ffffffffffffffffffffffffffffffffffffffff16145b80611de55750611de481856115d7565b5b91505092915050565b611df8828261132b565b611e8757611e1d8173ffffffffffffffffffffffffffffffffffffffff166014612788565b611e2b8360001c6020612788565b604051602001611e3c92919061436b565b6040516020818303038152906040526040517f08c379a0000000000000000000000000000000000000000000000000000000008152600401611e7e9190614548565b60405180910390fd5b5050565b611e95828261132b565b611f685760016008600084815260200190815260200160002060000160008373ffffffffffffffffffffffffffffffffffffffff1673ffffffffffffffffffffffffffffffffffffffff16815260200190815260200160002060006101000a81548160ff021916908315150217905550611f0d611751565b73ffffffffffffffffffffffffffffffffffffffff168173ffffffffffffffffffffffffffffffffffffffff16837f2f8788117e7eff1d82e926ec794901d17c78024a50270940304540a733656f0d60405160405180910390a45b5050565b611f76828261132b565b1561204a5760006008600084815260200190815260200160002060000160008373ffffffffffffffffffffffffffffffffffffffff1673ffffffffffffffffffffffffffffffffffffffff16815260200190815260200160002060006101000a81548160ff021916908315150217905550611fef611751565b73ffffffffffffffffffffffffffffffffffffffff168173ffffffffffffffffffffffffffffffffffffffff16837ff6391f5c32d9c69d2a47ea670b442974b53935d1edc7fd64eb21e047a839171b60405160405180910390a45b5050565b612056610fd8565b612095576040517f08c379a000000000000000000000000000000000000000000000000000000000815260040161208c906145ca565b60405180910390fd5b6000600760006101000a81548160ff0219169083151502179055507f5db9ee0a495bf2e6ff9c91a7834c1ba4fdd244a5e8aa4e537bd38aeae4b073aa6120d9611751565b6040516120e691906143a5565b60405180910390a1565b6120f8610fd8565b15612138576040517f08c379a000000000000000000000000000000000000000000000000000000000815260040161212f906146ea565b60405180910390fd5b6001600760006101000a81548160ff0219169083151502179055507f62e78cea01bee320cd4e420270b5ea74000d11b0c9f74754ebdbfc544b05a25861217c611751565b60405161218991906143a5565b60405180910390a1565b8173ffffffffffffffffffffffffffffffffffffffff168373ffffffffffffffffffffffffffffffffffffffff161415612202576040517f08c379a00000000000000000000000000000000000000000000000000000000081526004016121f99061468a565b60405180910390fd5b80600560008573ffffffffffffffffffffffffffffffffffffffff1673ffffffffffffffffffffffffffffffffffffffff16815260200190815260200160002060008473ffffffffffffffffffffffffffffffffffffffff1673ffffffffffffffffffffffffffffffffffffffff16815260200190815260200160002060006101000a81548160ff0219169083151502179055508173ffffffffffffffffffffffffffffffffffffffff168373ffffffffffffffffffffffffffffffffffffffff167f17307eab39ab6107e8899845ad3d59bd9653f200f220920489ca2b5937696c31836040516122f39190614435565b60405180910390a3505050565b61230b848484611aa9565b61231784848484612a82565b612356576040517f08c379a000000000000000000000000000000000000000000000000000000000815260040161234d9061460a565b60405180910390fd5b50505050565b6060612367826116e5565b6123a6576040517f08c379a000000000000000000000000000000000000000000000000000000000815260040161239d906147ea565b60405180910390fd5b60006006600084815260200190815260200160002080546123c690614c89565b80601f01602080910402602001604051908101604052809291908181526020018280546123f290614c89565b801561243f5780601f106124145761010080835404028352916020019161243f565b820191906000526020600020905b81548152906001019060200180831161242257829003601f168201915b505050505090506000612450612c19565b90506000815114156124665781925050506124a9565b60008251111561249b5780826040516020016124839291906142ea565b604051602081830303815290604052925050506124a9565b6124a484612c56565b925050505b919050565b6124c8828260405180602001604052806000815250612cfd565b5050565b60007f80ac58cd000000000000000000000000000000000000000000000000000000007bffffffffffffffffffffffffffffffffffffffffffffffffffffffff1916827bffffffffffffffffffffffffffffffffffffffffffffffffffffffff1916148061259757507f5b5e139f000000000000000000000000000000000000000000000000000000007bffffffffffffffffffffffffffffffffffffffffffffffffffffffff1916827bffffffffffffffffffffffffffffffffffffffffffffffffffffffff1916145b806125a757506125a682612d58565b5b9050919050565b60008082905060005b845181101561263e5760008582815181106125fb577f4e487b7100000000000000000000000000000000000000000000000000000000600052603260045260246000fd5b6020026020010151905080831161261d576126168382612dc2565b925061262a565b6126278184612dc2565b92505b50808061263690614cec565b9150506125b7565b508091505092915050565b60006126cd7f6316f9ddd4d59a364f3b95c26bab9d392c3380ace0fff15e91ed76f0d8bcd15a836000013584602001358580604001906126899190614925565b6040516126979291906142d1565b60405180910390206040516020016126b294939291906144be565b60405160208183030381529060405280519060200120612dd9565b9050919050565b6000816040516020016126e7919061430e565b604051602081830303815290604052805190602001209050919050565b60008060006127138585612df3565b9150915061272081612e76565b819250505092915050565b612733610fd8565b15612773576040517f08c379a000000000000000000000000000000000000000000000000000000000815260040161276a906146ea565b60405180910390fd5b61277e8383836131c7565b505050565b505050565b60606000600283600261279b9190614b04565b6127a59190614a7d565b67ffffffffffffffff8111156127e4577f4e487b7100000000000000000000000000000000000000000000000000000000600052604160045260246000fd5b6040519080825280601f01601f1916602001820160405280156128165781602001600182028036833780820191505090505b5090507f300000000000000000000000000000000000000000000000000000000000000081600081518110612874577f4e487b7100000000000000000000000000000000000000000000000000000000600052603260045260246000fd5b60200101907effffffffffffffffffffffffffffffffffffffffffffffffffffffffffffff1916908160001a9053507f7800000000000000000000000000000000000000000000000000000000000000816001815181106128fe577f4e487b7100000000000000000000000000000000000000000000000000000000600052603260045260246000fd5b60200101907effffffffffffffffffffffffffffffffffffffffffffffffffffffffffffff1916908160001a9053506000600184600261293e9190614b04565b6129489190614a7d565b90505b6001811115612a34577f3031323334353637383961626364656600000000000000000000000000000000600f8616601081106129b0577f4e487b7100000000000000000000000000000000000000000000000000000000600052603260045260246000fd5b1a60f81b8282815181106129ed577f4e487b7100000000000000000000000000000000000000000000000000000000600052603260045260246000fd5b60200101907effffffffffffffffffffffffffffffffffffffffffffffffffffffffffffff1916908160001a905350600485901c945080612a2d90614c5f565b905061294b565b5060008414612a78576040517f08c379a0000000000000000000000000000000000000000000000000000000008152600401612a6f9061458a565b60405180910390fd5b8091505092915050565b6000612aa38473ffffffffffffffffffffffffffffffffffffffff166131cc565b15612c0c578373ffffffffffffffffffffffffffffffffffffffff1663150b7a02612acc611751565b8786866040518563ffffffff1660e01b8152600401612aee94939291906143c0565b602060405180830381600087803b158015612b0857600080fd5b505af1925050508015612b3957506040513d601f19601f82011682018060405250810190612b369190613ca0565b60015b612bbc573d8060008114612b69576040519150601f19603f3d011682016040523d82523d6000602084013e612b6e565b606091505b50600081511415612bb4576040517f08c379a0000000000000000000000000000000000000000000000000000000008152600401612bab9061460a565b60405180910390fd5b805181602001fd5b63150b7a0260e01b7bffffffffffffffffffffffffffffffffffffffffffffffffffffffff1916817bffffffffffffffffffffffffffffffffffffffffffffffffffffffff191614915050612c11565b600190505b949350505050565b60606040518060400160405280601e81526020017f68747470733a2f2f63726561746f7273666f72756b7261696e652e696f2f0000815250905090565b6060612c61826116e5565b612ca0576040517f08c379a0000000000000000000000000000000000000000000000000000000008152600401612c979061484a565b60405180910390fd5b6000612caa612c19565b90506000815111612cca5760405180602001604052806000815250612cf5565b80612cd4846131ef565b604051602001612ce59291906142ea565b6040516020818303038152906040525b915050919050565b612d07838361185b565b612d146000848484612a82565b612d53576040517f08c379a0000000000000000000000000000000000000000000000000000000008152600401612d4a9061460a565b60405180910390fd5b505050565b60007f01ffc9a7000000000000000000000000000000000000000000000000000000007bffffffffffffffffffffffffffffffffffffffffffffffffffffffff1916827bffffffffffffffffffffffffffffffffffffffffffffffffffffffff1916149050919050565b600082600052816020526040600020905092915050565b6000612dec612de661339c565b836134b6565b9050919050565b600080604183511415612e355760008060006020860151925060408601519150606086015160001a9050612e29878285856134e9565b94509450505050612e6f565b604083511415612e66576000806020850151915060408501519050612e5b8683836135f6565b935093505050612e6f565b60006002915091505b9250929050565b60006004811115612eb0577f4e487b7100000000000000000000000000000000000000000000000000000000600052602160045260246000fd5b816004811115612ee9577f4e487b7100000000000000000000000000000000000000000000000000000000600052602160045260246000fd5b1415612ef4576131c4565b60016004811115612f2e577f4e487b7100000000000000000000000000000000000000000000000000000000600052602160045260246000fd5b816004811115612f67577f4e487b7100000000000000000000000000000000000000000000000000000000600052602160045260246000fd5b1415612fa8576040517f08c379a0000000000000000000000000000000000000000000000000000000008152600401612f9f9061456a565b60405180910390fd5b60026004811115612fe2577f4e487b7100000000000000000000000000000000000000000000000000000000600052602160045260246000fd5b81600481111561301b577f4e487b7100000000000000000000000000000000000000000000000000000000600052602160045260246000fd5b141561305c576040517f08c379a0000000000000000000000000000000000000000000000000000000008152600401613053906145ea565b60405180910390fd5b60036004811115613096577f4e487b7100000000000000000000000000000000000000000000000000000000600052602160045260246000fd5b8160048111156130cf577f4e487b7100000000000000000000000000000000000000000000000000000000600052602160045260246000fd5b1415613110576040517f08c379a0000000000000000000000000000000000000000000000000000000008152600401613107906146aa565b60405180910390fd5b600480811115613149577f4e487b7100000000000000000000000000000000000000000000000000000000600052602160045260246000fd5b816004811115613182577f4e487b7100000000000000000000000000000000000000000000000000000000600052602160045260246000fd5b14156131c3576040517f08c379a00000000000000000000000000000000000000000000000000000000081526004016131ba9061478a565b60405180910390fd5b5b50565b505050565b6000808273ffffffffffffffffffffffffffffffffffffffff163b119050919050565b60606000821415613237576040518060400160405280600181526020017f30000000000000000000000000000000000000000000000000000000000000008152509050613397565b600082905060005b6000821461326957808061325290614cec565b915050600a826132629190614ad3565b915061323f565b60008167ffffffffffffffff8111156132ab577f4e487b7100000000000000000000000000000000000000000000000000000000600052604160045260246000fd5b6040519080825280601f01601f1916602001820160405280156132dd5781602001600182028036833780820191505090505b5090505b60008514613390576001826132f69190614b5e565b9150600a856133059190614d63565b60306133119190614a7d565b60f81b81838151811061334d577f4e487b7100000000000000000000000000000000000000000000000000000000600052603260045260246000fd5b60200101907effffffffffffffffffffffffffffffffffffffffffffffffffffffffffffff1916908160001a905350600a856133899190614ad3565b94506132e1565b8093505050505b919050565b60007f000000000000000000000000000000000000000000000000000000000000000073ffffffffffffffffffffffffffffffffffffffff163073ffffffffffffffffffffffffffffffffffffffff1614801561341857507f000000000000000000000000000000000000000000000000000000000000000046145b15613445577f000000000000000000000000000000000000000000000000000000000000000090506134b3565b6134b07f00000000000000000000000000000000000000000000000000000000000000007f00000000000000000000000000000000000000000000000000000000000000007f0000000000000000000000000000000000000000000000000000000000000000613655565b90505b90565b600082826040516020016134cb929190614334565b60405160208183030381529060405280519060200120905092915050565b6000807f7fffffffffffffffffffffffffffffff5d576e7357a4501ddfe92f46681b20a08360001c11156135245760006003915091506135ed565b601b8560ff161415801561353c5750601c8560ff1614155b1561354e5760006004915091506135ed565b6000600187878787604051600081526020016040526040516135739493929190614503565b6020604051602081039080840390855afa158015613595573d6000803e3d6000fd5b505050602060405103519050600073ffffffffffffffffffffffffffffffffffffffff168173ffffffffffffffffffffffffffffffffffffffff1614156135e4576000600192509250506135ed565b80600092509250505b94509492505050565b60008060007f7fffffffffffffffffffffffffffffffffffffffffffffffffffffffffffffff60001b841690506000601b60ff8660001c901c6136399190614a7d565b9050613647878288856134e9565b935093505050935093915050565b6000838383463060405160200161367095949392919061446b565b6040516020818303038152906040528051906020012090509392505050565b82805461369b90614c89565b90600052602060002090601f0160209004810192826136bd5760008555613704565b82601f106136d657805160ff1916838001178555613704565b82800160010185558215613704579182015b828111156137035782518255916020019190600101906136e8565b5b5090506137119190613715565b5090565b5b8082111561372e576000816000905550600101613716565b5090565b6000613745613740846149a1565b61497c565b9050808382526020820190508285602086028201111561376457600080fd5b60005b85811015613794578161377a888261386e565b845260208401935060208301925050600181019050613767565b5050509392505050565b60006137b16137ac846149cd565b61497c565b9050828152602081018484840111156137c957600080fd5b6137d4848285614c1d565b509392505050565b60006137ef6137ea846149fe565b61497c565b90508281526020810184848401111561380757600080fd5b613812848285614c1d565b509392505050565b6000813590506138298161563d565b92915050565b600082601f83011261384057600080fd5b8135613850848260208601613732565b91505092915050565b60008135905061386881615654565b92915050565b60008135905061387d8161566b565b92915050565b60008135905061389281615682565b92915050565b6000815190506138a781615682565b92915050565b600082601f8301126138be57600080fd5b81356138ce84826020860161379e565b91505092915050565b600082601f8301126138e857600080fd5b81356138f88482602086016137dc565b91505092915050565b60006060828403121561391357600080fd5b81905092915050565b60008135905061392b81615699565b92915050565b60006020828403121561394357600080fd5b60006139518482850161381a565b91505092915050565b6000806040838503121561396d57600080fd5b600061397b8582860161381a565b925050602061398c8582860161381a565b9150509250929050565b6000806000606084860312156139ab57600080fd5b60006139b98682870161381a565b93505060206139ca8682870161381a565b92505060406139db8682870161391c565b9150509250925092565b600080600080608085870312156139fb57600080fd5b6000613a098782880161381a565b9450506020613a1a8782880161381a565b9350506040613a2b8782880161391c565b925050606085013567ffffffffffffffff811115613a4857600080fd5b613a54878288016138ad565b91505092959194509250565b60008060408385031215613a7357600080fd5b6000613a818582860161381a565b925050602083013567ffffffffffffffff811115613a9e57600080fd5b613aaa8582860161382f565b9150509250929050565b60008060408385031215613ac757600080fd5b6000613ad58582860161381a565b9250506020613ae685828601613859565b9150509250929050565b600080600060608486031215613b0557600080fd5b6000613b138682870161381a565b935050602084013567ffffffffffffffff811115613b3057600080fd5b613b3c86828701613901565b925050604084013567ffffffffffffffff811115613b5957600080fd5b613b65868287016138ad565b9150509250925092565b60008060408385031215613b8257600080fd5b6000613b908582860161381a565b9250506020613ba18582860161391c565b9150509250929050565b600080600060608486031215613bc057600080fd5b6000613bce8682870161381a565b9350506020613bdf8682870161391c565b925050604084013567ffffffffffffffff811115613bfc57600080fd5b613c08868287016138d7565b9150509250925092565b600060208284031215613c2457600080fd5b6000613c328482850161386e565b91505092915050565b60008060408385031215613c4e57600080fd5b6000613c5c8582860161386e565b9250506020613c6d8582860161381a565b9150509250929050565b600060208284031215613c8957600080fd5b6000613c9784828501613883565b91505092915050565b600060208284031215613cb257600080fd5b6000613cc084828501613898565b91505092915050565b600060208284031215613cdb57600080fd5b6000613ce98482850161391c565b91505092915050565b613cfb81614b92565b82525050565b613d12613d0d82614b92565b614d35565b82525050565b613d2181614ba4565b82525050565b613d3081614bb0565b82525050565b613d47613d4282614bb0565b614d47565b82525050565b6000613d598385614a56565b9350613d66838584614c1d565b82840190509392505050565b6000613d7d82614a2f565b613d878185614a45565b9350613d97818560208601614c2c565b613da081614e50565b840191505092915050565b6000613db682614a3a565b613dc08185614a61565b9350613dd0818560208601614c2c565b613dd981614e50565b840191505092915050565b6000613def82614a3a565b613df98185614a72565b9350613e09818560208601614c2c565b80840191505092915050565b6000613e22601883614a61565b9150613e2d82614e6e565b602082019050919050565b6000613e45602083614a61565b9150613e5082614e97565b602082019050919050565b6000613e68601f83614a61565b9150613e7382614ec0565b602082019050919050565b6000613e8b601483614a61565b9150613e9682614ee9565b602082019050919050565b6000613eae601f83614a61565b9150613eb982614f12565b602082019050919050565b6000613ed1601c83614a72565b9150613edc82614f3b565b601c82019050919050565b6000613ef4603283614a61565b9150613eff82614f64565b604082019050919050565b6000613f17602583614a61565b9150613f2282614fb3565b604082019050919050565b6000613f3a601c83614a61565b9150613f4582615002565b602082019050919050565b6000613f5d600283614a72565b9150613f688261502b565b600282019050919050565b6000613f80602483614a61565b9150613f8b82615054565b604082019050919050565b6000613fa3601983614a61565b9150613fae826150a3565b602082019050919050565b6000613fc6602283614a61565b9150613fd1826150cc565b604082019050919050565b6000613fe9602c83614a61565b9150613ff48261511b565b604082019050919050565b600061400c601083614a61565b91506140178261516a565b602082019050919050565b600061402f603883614a61565b915061403a82615193565b604082019050919050565b6000614052602a83614a61565b915061405d826151e2565b604082019050919050565b6000614075602983614a61565b915061408082615231565b604082019050919050565b6000614098602e83614a61565b91506140a382615280565b604082019050919050565b60006140bb602283614a61565b91506140c6826152cf565b604082019050919050565b60006140de601c83614a61565b91506140e98261531e565b602082019050919050565b6000614101602083614a61565b915061410c82615347565b602082019050919050565b6000614124603183614a61565b915061412f82615370565b604082019050919050565b6000614147602c83614a61565b9150614152826153bf565b604082019050919050565b600061416a601f83614a61565b91506141758261540e565b602082019050919050565b600061418d602f83614a61565b915061419882615437565b604082019050919050565b60006141b0600f83614a61565b91506141bb82615486565b602082019050919050565b60006141d3602183614a61565b91506141de826154af565b604082019050919050565b60006141f6602183614a61565b9150614201826154fe565b604082019050919050565b6000614219603183614a61565b91506142248261554d565b604082019050919050565b600061423c601783614a72565b91506142478261559c565b601782019050919050565b600061425f601183614a72565b915061426a826155c5565b601182019050919050565b6000614282602f83614a61565b915061428d826155ee565b604082019050919050565b6142a181614c06565b82525050565b6142b081614c10565b82525050565b60006142c28284613d01565b60148201915081905092915050565b60006142de828486613d4d565b91508190509392505050565b60006142f68285613de4565b91506143028284613de4565b91508190509392505050565b600061431982613ec4565b91506143258284613d36565b60208201915081905092915050565b600061433f82613f50565b915061434b8285613d36565b60208201915061435b8284613d36565b6020820191508190509392505050565b60006143768261422f565b91506143828285613de4565b915061438d82614252565b91506143998284613de4565b91508190509392505050565b60006020820190506143ba6000830184613cf2565b92915050565b60006080820190506143d56000830187613cf2565b6143e26020830186613cf2565b6143ef6040830185614298565b81810360608301526144018184613d72565b905095945050505050565b60006040820190506144216000830185613cf2565b61442e6020830184613d27565b9392505050565b600060208201905061444a6000830184613d18565b92915050565b60006020820190506144656000830184613d27565b92915050565b600060a0820190506144806000830188613d27565b61448d6020830187613d27565b61449a6040830186613d27565b6144a76060830185614298565b6144b46080830184613cf2565b9695505050505050565b60006080820190506144d36000830187613d27565b6144e06020830186614298565b6144ed6040830185614298565b6144fa6060830184613d27565b95945050505050565b60006080820190506145186000830187613d27565b61452560208301866142a7565b6145326040830185613d27565b61453f6060830184613d27565b95945050505050565b600060208201905081810360008301526145628184613dab565b905092915050565b6000602082019050818103600083015261458381613e15565b9050919050565b600060208201905081810360008301526145a381613e38565b9050919050565b600060208201905081810360008301526145c381613e5b565b9050919050565b600060208201905081810360008301526145e381613e7e565b9050919050565b6000602082019050818103600083015261460381613ea1565b9050919050565b6000602082019050818103600083015261462381613ee7565b9050919050565b6000602082019050818103600083015261464381613f0a565b9050919050565b6000602082019050818103600083015261466381613f2d565b9050919050565b6000602082019050818103600083015261468381613f73565b9050919050565b600060208201905081810360008301526146a381613f96565b9050919050565b600060208201905081810360008301526146c381613fb9565b9050919050565b600060208201905081810360008301526146e381613fdc565b9050919050565b6000602082019050818103600083015261470381613fff565b9050919050565b6000602082019050818103600083015261472381614022565b9050919050565b6000602082019050818103600083015261474381614045565b9050919050565b6000602082019050818103600083015261476381614068565b9050919050565b600060208201905081810360008301526147838161408b565b9050919050565b600060208201905081810360008301526147a3816140ae565b9050919050565b600060208201905081810360008301526147c3816140d1565b9050919050565b600060208201905081810360008301526147e3816140f4565b9050919050565b6000602082019050818103600083015261480381614117565b9050919050565b600060208201905081810360008301526148238161413a565b9050919050565b600060208201905081810360008301526148438161415d565b9050919050565b6000602082019050818103600083015261486381614180565b9050919050565b60006020820190508181036000830152614883816141a3565b9050919050565b600060208201905081810360008301526148a3816141c6565b9050919050565b600060208201905081810360008301526148c3816141e9565b9050919050565b600060208201905081810360008301526148e38161420c565b9050919050565b6000602082019050818103600083015261490381614275565b9050919050565b600060208201905061491f6000830184614298565b92915050565b6000808335600160200384360303811261493e57600080fd5b80840192508235915067ffffffffffffffff82111561495c57600080fd5b60208301925060018202360383131561497457600080fd5b509250929050565b6000614986614997565b90506149928282614cbb565b919050565b6000604051905090565b600067ffffffffffffffff8211156149bc576149bb614e21565b5b602082029050602081019050919050565b600067ffffffffffffffff8211156149e8576149e7614e21565b5b6149f182614e50565b9050602081019050919050565b600067ffffffffffffffff821115614a1957614a18614e21565b5b614a2282614e50565b9050602081019050919050565b600081519050919050565b600081519050919050565b600082825260208201905092915050565b600081905092915050565b600082825260208201905092915050565b600081905092915050565b6000614a8882614c06565b9150614a9383614c06565b9250827fffffffffffffffffffffffffffffffffffffffffffffffffffffffffffffffff03821115614ac857614ac7614d94565b5b828201905092915050565b6000614ade82614c06565b9150614ae983614c06565b925082614af957614af8614dc3565b5b828204905092915050565b6000614b0f82614c06565b9150614b1a83614c06565b9250817fffffffffffffffffffffffffffffffffffffffffffffffffffffffffffffffff0483118215151615614b5357614b52614d94565b5b828202905092915050565b6000614b6982614c06565b9150614b7483614c06565b925082821015614b8757614b86614d94565b5b828203905092915050565b6000614b9d82614be6565b9050919050565b60008115159050919050565b6000819050919050565b60007fffffffff0000000000000000000000000000000000000000000000000000000082169050919050565b600073ffffffffffffffffffffffffffffffffffffffff82169050919050565b6000819050919050565b600060ff82169050919050565b82818337600083830152505050565b60005b83811015614c4a578082015181840152602081019050614c2f565b83811115614c59576000848401525b50505050565b6000614c6a82614c06565b91506000821415614c7e57614c7d614d94565b5b600182039050919050565b60006002820490506001821680614ca157607f821691505b60208210811415614cb557614cb4614df2565b5b50919050565b614cc482614e50565b810181811067ffffffffffffffff82111715614ce357614ce2614e21565b5b80604052505050565b6000614cf782614c06565b91507fffffffffffffffffffffffffffffffffffffffffffffffffffffffffffffffff821415614d2a57614d29614d94565b5b600182019050919050565b6000614d4082614d51565b9050919050565b6000819050919050565b6000614d5c82614e61565b9050919050565b6000614d6e82614c06565b9150614d7983614c06565b925082614d8957614d88614dc3565b5b828206905092915050565b7f4e487b7100000000000000000000000000000000000000000000000000000000600052601160045260246000fd5b7f4e487b7100000000000000000000000000000000000000000000000000000000600052601260045260246000fd5b7f4e487b7100000000000000000000000000000000000000000000000000000000600052602260045260246000fd5b7f4e487b7100000000000000000000000000000000000000000000000000000000600052604160045260246000fd5b6000601f19601f8301169050919050565b60008160601b9050919050565b7f45434453413a20696e76616c6964207369676e61747572650000000000000000600082015250565b7f537472696e67733a20686578206c656e67746820696e73756666696369656e74600082015250565b7f41727469737473206861766520746f20616464207468656d73656c7665732100600082015250565b7f5061757361626c653a206e6f7420706175736564000000000000000000000000600082015250565b7f45434453413a20696e76616c6964207369676e6174757265206c656e67746800600082015250565b7f19457468657265756d205369676e6564204d6573736167653a0a333200000000600082015250565b7f4552433732313a207472616e7366657220746f206e6f6e20455243373231526560008201527f63656976657220696d706c656d656e7465720000000000000000000000000000602082015250565b7f4552433732313a207472616e736665722066726f6d20696e636f72726563742060008201527f6f776e6572000000000000000000000000000000000000000000000000000000602082015250565b7f4552433732313a20746f6b656e20616c7265616479206d696e74656400000000600082015250565b7f1901000000000000000000000000000000000000000000000000000000000000600082015250565b7f4552433732313a207472616e7366657220746f20746865207a65726f2061646460008201527f7265737300000000000000000000000000000000000000000000000000000000602082015250565b7f4552433732313a20617070726f766520746f2063616c6c657200000000000000600082015250565b7f45434453413a20696e76616c6964207369676e6174757265202773272076616c60008201527f7565000000000000000000000000000000000000000000000000000000000000602082015250565b7f4552433732313a206f70657261746f7220717565727920666f72206e6f6e657860008201527f697374656e7420746f6b656e0000000000000000000000000000000000000000602082015250565b7f5061757361626c653a2070617573656400000000000000000000000000000000600082015250565b7f4552433732313a20617070726f76652063616c6c6572206973206e6f74206f7760008201527f6e6572206e6f7220617070726f76656420666f7220616c6c0000000000000000602082015250565b7f4552433732313a2062616c616e636520717565727920666f7220746865207a6560008201527f726f206164647265737300000000000000000000000000000000000000000000602082015250565b7f4552433732313a206f776e657220717565727920666f72206e6f6e657869737460008201527f656e7420746f6b656e0000000000000000000000000000000000000000000000602082015250565b7f45524337323155524953746f726167653a2055524920736574206f66206e6f6e60008201527f6578697374656e7420746f6b656e000000000000000000000000000000000000602082015250565b7f45434453413a20696e76616c6964207369676e6174757265202776272076616c60008201527f7565000000000000000000000000000000000000000000000000000000000000602082015250565b7f496e73756666696369656e742066756e647320746f2072656465656d00000000600082015250565b7f4552433732313a206d696e7420746f20746865207a65726f2061646472657373600082015250565b7f45524337323155524953746f726167653a2055524920717565727920666f722060008201527f6e6f6e6578697374656e7420746f6b656e000000000000000000000000000000602082015250565b7f4552433732313a20617070726f76656420717565727920666f72206e6f6e657860008201527f697374656e7420746f6b656e0000000000000000000000000000000000000000602082015250565b7f5468652063616c6c657220697320616e6f7468657220636f6e74726163742100600082015250565b7f4552433732314d657461646174613a2055524920717565727920666f72206e6f60008201527f6e6578697374656e7420746f6b656e0000000000000000000000000000000000602082015250565b7f4e6f7420617574686f72697a6564210000000000000000000000000000000000600082015250565b7f4552433732313a20617070726f76616c20746f2063757272656e74206f776e6560008201527f7200000000000000000000000000000000000000000000000000000000000000602082015250565b7f5369676e617475726520696e76616c6964206f7220756e617574686f72697a6560008201527f6400000000000000000000000000000000000000000000000000000000000000602082015250565b7f4552433732313a207472616e736665722063616c6c6572206973206e6f74206f60008201527f776e6572206e6f7220617070726f766564000000000000000000000000000000602082015250565b7f416363657373436f6e74726f6c3a206163636f756e7420000000000000000000600082015250565b7f206973206d697373696e6720726f6c6520000000000000000000000000000000600082015250565b7f416363657373436f6e74726f6c3a2063616e206f6e6c792072656e6f756e636560008201527f20726f6c657320666f722073656c660000000000000000000000000000000000602082015250565b61564681614b92565b811461565157600080fd5b50565b61565d81614ba4565b811461566857600080fd5b50565b61567481614bb0565b811461567f57600080fd5b50565b61568b81614bba565b811461569657600080fd5b50565b6156a281614c06565b81146156ad57600080fd5b5056fea2646970667358221220b5bb8198e2c0e5e29f44ed99936a0b05e96acb8aee3932dd64760c0ffb153f3264736f6c63430008040033",
  "linkReferences": {},
  "deployedLinkReferences": {}
}